{
    "_format": "hh-sol-artifact-1",
    "contractName": "NFTMarketplace",
    "sourceName": "contracts/NFTMarketplace.sol",
    "abi": [
        {
            "inputs": [],
            "stateMutability": "nonpayable",
            "type": "constructor"
        },
        {
            "anonymous": false,
            "inputs": [
                {
                    "indexed": true,
                    "internalType": "address",
                    "name": "owner",
                    "type": "address"
                },
                {
                    "indexed": true,
                    "internalType": "address",
                    "name": "approved",
                    "type": "address"
                },
                {
                    "indexed": true,
                    "internalType": "uint256",
                    "name": "tokenId",
                    "type": "uint256"
                }
            ],
            "name": "Approval",
            "type": "event"
        },
        {
            "anonymous": false,
            "inputs": [
                {
                    "indexed": true,
                    "internalType": "address",
                    "name": "owner",
                    "type": "address"
                },
                {
                    "indexed": true,
                    "internalType": "address",
                    "name": "operator",
                    "type": "address"
                },
                {
                    "indexed": false,
                    "internalType": "bool",
                    "name": "approved",
                    "type": "bool"
                }
            ],
            "name": "ApprovalForAll",
            "type": "event"
        },
        {
            "anonymous": false,
            "inputs": [
                {
                    "indexed": true,
                    "internalType": "uint256",
                    "name": "tokenId",
                    "type": "uint256"
                },
                {
                    "indexed": false,
                    "internalType": "address",
                    "name": "seller",
                    "type": "address"
                },
                {
                    "indexed": false,
                    "internalType": "address",
                    "name": "owner",
                    "type": "address"
                },
                {
                    "indexed": false,
                    "internalType": "uint256",
                    "name": "price",
                    "type": "uint256"
                },
                {
                    "indexed": false,
                    "internalType": "bool",
                    "name": "sold",
                    "type": "bool"
                }
            ],
            "name": "MarketItemCreated",
            "type": "event"
        },
        {
            "anonymous": false,
            "inputs": [
                {
                    "indexed": true,
                    "internalType": "address",
                    "name": "from",
                    "type": "address"
                },
                {
                    "indexed": true,
                    "internalType": "address",
                    "name": "to",
                    "type": "address"
                },
                {
                    "indexed": true,
                    "internalType": "uint256",
                    "name": "tokenId",
                    "type": "uint256"
                }
            ],
            "name": "Transfer",
            "type": "event"
        },
        {
            "inputs": [
                {
                    "internalType": "address",
                    "name": "to",
                    "type": "address"
                },
                {
                    "internalType": "uint256",
                    "name": "tokenId",
                    "type": "uint256"
                }
            ],
            "name": "approve",
            "outputs": [],
            "stateMutability": "nonpayable",
            "type": "function"
        },
        {
            "inputs": [
                {
                    "internalType": "address",
                    "name": "owner",
                    "type": "address"
                }
            ],
            "name": "balanceOf",
            "outputs": [
                {
                    "internalType": "uint256",
                    "name": "",
                    "type": "uint256"
                }
            ],
            "stateMutability": "view",
            "type": "function"
        },
        {
            "inputs": [
                {
                    "internalType": "uint256",
                    "name": "tokenId",
                    "type": "uint256"
                }
            ],
            "name": "createMarketSale",
            "outputs": [],
            "stateMutability": "payable",
            "type": "function"
        },
        {
            "inputs": [
                {
                    "internalType": "string",
                    "name": "tokenURI",
                    "type": "string"
                },
                {
                    "internalType": "uint256",
                    "name": "price",
                    "type": "uint256"
                }
            ],
            "name": "createToken",
            "outputs": [
                {
                    "internalType": "uint256",
                    "name": "",
                    "type": "uint256"
                }
            ],
            "stateMutability": "payable",
            "type": "function"
        },
        {
            "inputs": [],
            "name": "fetchItemsListed",
            "outputs": [
                {
                    "components": [
                        {
                            "internalType": "uint256",
                            "name": "tokenId",
                            "type": "uint256"
                        },
                        {
                            "internalType": "address payable",
                            "name": "seller",
                            "type": "address"
                        },
                        {
                            "internalType": "address payable",
                            "name": "owner",
                            "type": "address"
                        },
                        {
                            "internalType": "uint256",
                            "name": "price",
                            "type": "uint256"
                        },
                        {
                            "internalType": "bool",
                            "name": "sold",
                            "type": "bool"
                        }
                    ],
                    "internalType": "struct NFTMarketplace.MarketItem[]",
                    "name": "",
                    "type": "tuple[]"
                }
            ],
            "stateMutability": "view",
            "type": "function"
        },
        {
            "inputs": [],
            "name": "fetchMarketItems",
            "outputs": [
                {
                    "components": [
                        {
                            "internalType": "uint256",
                            "name": "tokenId",
                            "type": "uint256"
                        },
                        {
                            "internalType": "address payable",
                            "name": "seller",
                            "type": "address"
                        },
                        {
                            "internalType": "address payable",
                            "name": "owner",
                            "type": "address"
                        },
                        {
                            "internalType": "uint256",
                            "name": "price",
                            "type": "uint256"
                        },
                        {
                            "internalType": "bool",
                            "name": "sold",
                            "type": "bool"
                        }
                    ],
                    "internalType": "struct NFTMarketplace.MarketItem[]",
                    "name": "",
                    "type": "tuple[]"
                }
            ],
            "stateMutability": "view",
            "type": "function"
        },
        {
            "inputs": [],
            "name": "fetchMyNFTs",
            "outputs": [
                {
                    "components": [
                        {
                            "internalType": "uint256",
                            "name": "tokenId",
                            "type": "uint256"
                        },
                        {
                            "internalType": "address payable",
                            "name": "seller",
                            "type": "address"
                        },
                        {
                            "internalType": "address payable",
                            "name": "owner",
                            "type": "address"
                        },
                        {
                            "internalType": "uint256",
                            "name": "price",
                            "type": "uint256"
                        },
                        {
                            "internalType": "bool",
                            "name": "sold",
                            "type": "bool"
                        }
                    ],
                    "internalType": "struct NFTMarketplace.MarketItem[]",
                    "name": "",
                    "type": "tuple[]"
                }
            ],
            "stateMutability": "view",
            "type": "function"
        },
        {
            "inputs": [
                {
                    "internalType": "uint256",
                    "name": "tokenz",
                    "type": "uint256"
                }
            ],
            "name": "fetchNFT",
            "outputs": [
                {
                    "components": [
                        {
                            "internalType": "uint256",
                            "name": "tokenId",
                            "type": "uint256"
                        },
                        {
                            "internalType": "address payable",
                            "name": "seller",
                            "type": "address"
                        },
                        {
                            "internalType": "address payable",
                            "name": "owner",
                            "type": "address"
                        },
                        {
                            "internalType": "uint256",
                            "name": "price",
                            "type": "uint256"
                        },
                        {
                            "internalType": "bool",
                            "name": "sold",
                            "type": "bool"
                        }
                    ],
                    "internalType": "struct NFTMarketplace.MarketItem[]",
                    "name": "",
                    "type": "tuple[]"
                }
            ],
            "stateMutability": "pure",
            "type": "function"
        },
        {
            "inputs": [
                {
                    "internalType": "uint256",
                    "name": "tokenId",
                    "type": "uint256"
                }
            ],
            "name": "getApproved",
            "outputs": [
                {
                    "internalType": "address",
                    "name": "",
                    "type": "address"
                }
            ],
            "stateMutability": "view",
            "type": "function"
        },
        {
            "inputs": [],
            "name": "getListingPrice",
            "outputs": [
                {
                    "internalType": "uint256",
                    "name": "",
                    "type": "uint256"
                }
            ],
            "stateMutability": "view",
            "type": "function"
        },
        {
            "inputs": [
                {
                    "internalType": "address",
                    "name": "owner",
                    "type": "address"
                },
                {
                    "internalType": "address",
                    "name": "operator",
                    "type": "address"
                }
            ],
            "name": "isApprovedForAll",
            "outputs": [
                {
                    "internalType": "bool",
                    "name": "",
                    "type": "bool"
                }
            ],
            "stateMutability": "view",
            "type": "function"
        },
        {
            "inputs": [],
            "name": "name",
            "outputs": [
                {
                    "internalType": "string",
                    "name": "",
                    "type": "string"
                }
            ],
            "stateMutability": "view",
            "type": "function"
        },
        {
            "inputs": [
                {
                    "internalType": "uint256",
                    "name": "tokenId",
                    "type": "uint256"
                }
            ],
            "name": "ownerOf",
            "outputs": [
                {
                    "internalType": "address",
                    "name": "",
                    "type": "address"
                }
            ],
            "stateMutability": "view",
            "type": "function"
        },
        {
            "inputs": [
                {
                    "internalType": "uint256",
                    "name": "tokenId",
                    "type": "uint256"
                },
                {
                    "internalType": "uint256",
                    "name": "price",
                    "type": "uint256"
                }
            ],
            "name": "resellToken",
            "outputs": [],
            "stateMutability": "payable",
            "type": "function"
        },
        {
            "inputs": [
                {
                    "internalType": "address",
                    "name": "from",
                    "type": "address"
                },
                {
                    "internalType": "address",
                    "name": "to",
                    "type": "address"
                },
                {
                    "internalType": "uint256",
                    "name": "tokenId",
                    "type": "uint256"
                }
            ],
            "name": "safeTransferFrom",
            "outputs": [],
            "stateMutability": "nonpayable",
            "type": "function"
        },
        {
            "inputs": [
                {
                    "internalType": "address",
                    "name": "from",
                    "type": "address"
                },
                {
                    "internalType": "address",
                    "name": "to",
                    "type": "address"
                },
                {
                    "internalType": "uint256",
                    "name": "tokenId",
                    "type": "uint256"
                },
                {
                    "internalType": "bytes",
                    "name": "_data",
                    "type": "bytes"
                }
            ],
            "name": "safeTransferFrom",
            "outputs": [],
            "stateMutability": "nonpayable",
            "type": "function"
        },
        {
            "inputs": [
                {
                    "internalType": "address",
                    "name": "operator",
                    "type": "address"
                },
                {
                    "internalType": "bool",
                    "name": "approved",
                    "type": "bool"
                }
            ],
            "name": "setApprovalForAll",
            "outputs": [],
            "stateMutability": "nonpayable",
            "type": "function"
        },
        {
            "inputs": [
                {
                    "internalType": "bytes4",
                    "name": "interfaceId",
                    "type": "bytes4"
                }
            ],
            "name": "supportsInterface",
            "outputs": [
                {
                    "internalType": "bool",
                    "name": "",
                    "type": "bool"
                }
            ],
            "stateMutability": "view",
            "type": "function"
        },
        {
            "inputs": [],
            "name": "symbol",
            "outputs": [
                {
                    "internalType": "string",
                    "name": "",
                    "type": "string"
                }
            ],
            "stateMutability": "view",
            "type": "function"
        },
        {
            "inputs": [
                {
                    "internalType": "uint256",
                    "name": "tokenId",
                    "type": "uint256"
                }
            ],
            "name": "tokenURI",
            "outputs": [
                {
                    "internalType": "string",
                    "name": "",
                    "type": "string"
                }
            ],
            "stateMutability": "view",
            "type": "function"
        },
        {
            "inputs": [
                {
                    "internalType": "address",
                    "name": "from",
                    "type": "address"
                },
                {
                    "internalType": "address",
                    "name": "to",
                    "type": "address"
                },
                {
                    "internalType": "uint256",
                    "name": "tokenId",
                    "type": "uint256"
                }
            ],
            "name": "transferFrom",
            "outputs": [],
            "stateMutability": "nonpayable",
            "type": "function"
        },
        {
            "inputs": [
                {
                    "internalType": "uint256",
                    "name": "_listingPrice",
                    "type": "uint256"
                }
            ],
            "name": "updateListingPrice",
            "outputs": [],
            "stateMutability": "payable",
            "type": "function"
        }
    ],
    "bytecode": "0x60806040526658d15e176280006009553480156200001c57600080fd5b50604080518082018252600f81526e5661756c7420496e6475737472696160881b602080830191825283518085019094526004845263056494d560e41b9084015281519192916200007091600091620000a1565b50805162000086906001906020840190620000a1565b5050600a80546001600160a01b031916331790555062000184565b828054620000af9062000147565b90600052602060002090601f016020900481019282620000d357600085556200011e565b82601f10620000ee57805160ff19168380011785556200011e565b828001600101855582156200011e579182015b828111156200011e57825182559160200191906001019062000101565b506200012c92915062000130565b5090565b5b808211156200012c576000815560010162000131565b600181811c908216806200015c57607f821691505b602082108114156200017e57634e487b7160e01b600052602260045260246000fd5b50919050565b6123cf80620001946000396000f3fe6080604052600436106101355760003560e01c806370a08231116100ab578063b88d4fde1161006f578063b88d4fde14610331578063be9af53614610351578063c87b56dd14610364578063deb1250d14610384578063e219fc75146103a4578063e985e9c5146103b757600080fd5b806370a08231146102b657806372b3b620146102d657806395d89b41146102e9578063a22cb465146102fe578063ae677aa31461031e57600080fd5b806312e85585116100fd57806312e855851461020d578063202e37401461022c57806323b872dd1461024157806342842e0e1461026157806345f8fa80146102815780636352211e1461029657600080fd5b806301ffc9a71461013a57806306fdde031461016f578063081812fc14610191578063095ea7b3146101c95780630f08efe0146101eb575b600080fd5b34801561014657600080fd5b5061015a610155366004611f90565b610400565b60405190151581526020015b60405180910390f35b34801561017b57600080fd5b50610184610452565b604051610166919061216b565b34801561019d57600080fd5b506101b16101ac36600461201e565b6104e4565b6040516001600160a01b039091168152602001610166565b3480156101d557600080fd5b506101e96101e4366004611f67565b610571565b005b3480156101f757600080fd5b50610200610687565b60405161016691906120ef565b34801561021957600080fd5b506009545b604051908152602001610166565b34801561023857600080fd5b5061020061081b565b34801561024d57600080fd5b506101e961025c366004611e79565b6109ed565b34801561026d57600080fd5b506101e961027c366004611e79565b610a1e565b34801561028d57600080fd5b50610200610a39565b3480156102a257600080fd5b506101b16102b136600461201e565b610c0b565b3480156102c257600080fd5b5061021e6102d1366004611e2d565b610c82565b61021e6102e4366004611fc8565b610d09565b3480156102f557600080fd5b50610184610d4b565b34801561030a57600080fd5b506101e9610319366004611f2d565b610d5a565b6101e961032c36600461201e565b610d69565b34801561033d57600080fd5b506101e961034c366004611eb4565b610de1565b6101e961035f36600461201e565b610e19565b34801561037057600080fd5b5061018461037f36600461201e565b610f7e565b34801561039057600080fd5b5061020061039f36600461201e565b6110f5565b6101e96103b2366004612036565b611161565b3480156103c357600080fd5b5061015a6103d2366004611e47565b6001600160a01b03918216600090815260056020908152604080832093909416825291909152205460ff1690565b60006001600160e01b031982166380ac58cd60e01b148061043157506001600160e01b03198216635b5e139f60e01b145b8061044c57506301ffc9a760e01b6001600160e01b03198316145b92915050565b606060008054610461906122d4565b80601f016020809104026020016040519081016040528092919081815260200182805461048d906122d4565b80156104da5780601f106104af576101008083540402835291602001916104da565b820191906000526020600020905b8154815290600101906020018083116104bd57829003601f168201915b5050505050905090565b60006104ef82611259565b6105555760405162461bcd60e51b815260206004820152602c60248201527f4552433732313a20617070726f76656420717565727920666f72206e6f6e657860448201526b34b9ba32b73a103a37b5b2b760a11b60648201526084015b60405180910390fd5b506000908152600460205260409020546001600160a01b031690565b600061057c82610c0b565b9050806001600160a01b0316836001600160a01b031614156105ea5760405162461bcd60e51b815260206004820152602160248201527f4552433732313a20617070726f76616c20746f2063757272656e74206f776e656044820152603960f91b606482015260840161054c565b336001600160a01b0382161480610606575061060681336103d2565b6106785760405162461bcd60e51b815260206004820152603860248201527f4552433732313a20617070726f76652063616c6c6572206973206e6f74206f7760448201527f6e6572206e6f7220617070726f76656420666f7220616c6c0000000000000000606482015260840161054c565b6106828383611276565b505050565b6060600061069460075490565b905060006106a160085490565b6007546106ae9190612291565b90506000808267ffffffffffffffff8111156106da57634e487b7160e01b600052604160045260246000fd5b60405190808252806020026020018201604052801561071357816020015b610700611cd4565b8152602001906001900390816106f85790505b50905060005b848110156108125730600b6000610731846001612265565b81526020810191909152604001600020600201546001600160a01b03161415610800576000610761826001612265565b6000818152600b6020908152604091829020825160a0810184528154815260018201546001600160a01b039081169382019390935260028201549092169282019290925260038201546060820152600482015460ff1615156080820152855192935090918590879081106107e557634e487b7160e01b600052603260045260246000fd5b60209081029190910101526107fb600186612265565b945050505b8061080a8161230f565b915050610719565b50949350505050565b6060600061082860075490565b905060008060005b8381101561088b5733600b6000610848846001612265565b81526020810191909152604001600020600201546001600160a01b0316141561087957610876600184612265565b92505b806108838161230f565b915050610830565b5060008267ffffffffffffffff8111156108b557634e487b7160e01b600052604160045260246000fd5b6040519080825280602002602001820160405280156108ee57816020015b6108db611cd4565b8152602001906001900390816108d35790505b50905060005b848110156108125733600b600061090c846001612265565b81526020810191909152604001600020600201546001600160a01b031614156109db57600061093c826001612265565b6000818152600b6020908152604091829020825160a0810184528154815260018201546001600160a01b039081169382019390935260028201549092169282019290925260038201546060820152600482015460ff1615156080820152855192935090918590879081106109c057634e487b7160e01b600052603260045260246000fd5b60209081029190910101526109d6600186612265565b945050505b806109e58161230f565b9150506108f4565b6109f733826112e4565b610a135760405162461bcd60e51b815260040161054c90612214565b6106828383836113cd565b61068283838360405180602001604052806000815250610de1565b60606000610a4660075490565b905060008060005b83811015610aa95733600b6000610a66846001612265565b81526020810191909152604001600020600101546001600160a01b03161415610a9757610a94600184612265565b92505b80610aa18161230f565b915050610a4e565b5060008267ffffffffffffffff811115610ad357634e487b7160e01b600052604160045260246000fd5b604051908082528060200260200182016040528015610b0c57816020015b610af9611cd4565b815260200190600190039081610af15790505b50905060005b848110156108125733600b6000610b2a846001612265565b81526020810191909152604001600020600101546001600160a01b03161415610bf9576000610b5a826001612265565b6000818152600b6020908152604091829020825160a0810184528154815260018201546001600160a01b039081169382019390935260028201549092169282019290925260038201546060820152600482015460ff161515608082015285519293509091859087908110610bde57634e487b7160e01b600052603260045260246000fd5b6020908102919091010152610bf4600186612265565b945050505b80610c038161230f565b915050610b12565b6000818152600260205260408120546001600160a01b03168061044c5760405162461bcd60e51b815260206004820152602960248201527f4552433732313a206f776e657220717565727920666f72206e6f6e657869737460448201526832b73a103a37b5b2b760b91b606482015260840161054c565b60006001600160a01b038216610ced5760405162461bcd60e51b815260206004820152602a60248201527f4552433732313a2062616c616e636520717565727920666f7220746865207a65604482015269726f206164647265737360b01b606482015260840161054c565b506001600160a01b031660009081526003602052604090205490565b6000610d19600780546001019055565b6000610d2460075490565b9050610d303382611569565b610d3a818561169c565b610d448184611727565b9392505050565b606060018054610461906122d4565b610d6533838361187d565b5050565b600a546001600160a01b03163314610ddc5760405162461bcd60e51b815260206004820152603060248201527f4f6e6c79206d61726b6574706c616365206f776e65722063616e20757064617460448201526f32903634b9ba34b73390383934b1b29760811b606482015260840161054c565b600955565b610deb33836112e4565b610e075760405162461bcd60e51b815260040161054c90612214565b610e138484848461194c565b50505050565b6000818152600b6020526040902060038101546001909101546001600160a01b0316348214610eb2576040805162461bcd60e51b81526020600482015260248101919091527f506c65617365207375626d6974207468652061736b696e67207072696365206960448201527f6e206f7264657220746f20636f6d706c65746520746865207075726368617365606482015260840161054c565b6000838152600b602052604090206002810180546001600160a01b0319908116331790915560048201805460ff1916600190811790915590910180549091169055610f01600880546001019055565b610f0c3033856113cd565b600a546009546040516001600160a01b039092169181156108fc0291906000818181858888f19350505050158015610f48573d6000803e3d6000fd5b506040516001600160a01b038216903480156108fc02916000818181858888f19350505050158015610e13573d6000803e3d6000fd5b6060610f8982611259565b610fef5760405162461bcd60e51b815260206004820152603160248201527f45524337323155524953746f726167653a2055524920717565727920666f72206044820152703737b732bc34b9ba32b73a103a37b5b2b760791b606482015260840161054c565b60008281526006602052604081208054611008906122d4565b80601f0160208091040260200160405190810160405280929190818152602001828054611034906122d4565b80156110815780601f1061105657610100808354040283529160200191611081565b820191906000526020600020905b81548152906001019060200180831161106457829003601f168201915b50505050509050600061109f60408051602081019091526000815290565b90508051600014156110b2575092915050565b8151156110e45780826040516020016110cc929190612083565b60405160208183030381529060405292505050919050565b6110ed8461197f565b949350505050565b606060008267ffffffffffffffff81111561112057634e487b7160e01b600052604160045260246000fd5b60405190808252806020026020018201604052801561115957816020015b611146611cd4565b81526020019060019003908161113e5790505b509392505050565b6000828152600b60205260409020600201546001600160a01b031633146111dd5760405162461bcd60e51b815260206004820152602a60248201527f4f6e6c79206974656d206f776e65722063616e20706572666f726d20746869736044820152691037b832b930ba34b7b760b11b606482015260840161054c565b60095434146111fe5760405162461bcd60e51b815260040161054c906121d0565b6000828152600b6020526040902060048101805460ff19169055600381018290556001810180546001600160a01b03199081163317909155600290910180549091163017905561124e6008611a56565b610d653330846113cd565b6000908152600260205260409020546001600160a01b0316151590565b600081815260046020526040902080546001600160a01b0319166001600160a01b03841690811790915581906112ab82610c0b565b6001600160a01b03167f8c5be1e5ebec7d5bd14f71427d1e84f3dd0314c0f7b2291e5b200ac8c7c3b92560405160405180910390a45050565b60006112ef82611259565b6113505760405162461bcd60e51b815260206004820152602c60248201527f4552433732313a206f70657261746f7220717565727920666f72206e6f6e657860448201526b34b9ba32b73a103a37b5b2b760a11b606482015260840161054c565b600061135b83610c0b565b9050806001600160a01b0316846001600160a01b031614806113a257506001600160a01b0380821660009081526005602090815260408083209388168352929052205460ff165b806110ed5750836001600160a01b03166113bb846104e4565b6001600160a01b031614949350505050565b826001600160a01b03166113e082610c0b565b6001600160a01b0316146114445760405162461bcd60e51b815260206004820152602560248201527f4552433732313a207472616e736665722066726f6d20696e636f72726563742060448201526437bbb732b960d91b606482015260840161054c565b6001600160a01b0382166114a65760405162461bcd60e51b8152602060048201526024808201527f4552433732313a207472616e7366657220746f20746865207a65726f206164646044820152637265737360e01b606482015260840161054c565b6114b1600082611276565b6001600160a01b03831660009081526003602052604081208054600192906114da908490612291565b90915550506001600160a01b0382166000908152600360205260408120805460019290611508908490612265565b909155505060008181526002602052604080822080546001600160a01b0319166001600160a01b0386811691821790925591518493918716917fddf252ad1be2c89b69c2b068fc378daa952ba7f163c4a11628f55a4df523b3ef91a4505050565b6001600160a01b0382166115bf5760405162461bcd60e51b815260206004820181905260248201527f4552433732313a206d696e7420746f20746865207a65726f2061646472657373604482015260640161054c565b6115c881611259565b156116155760405162461bcd60e51b815260206004820152601c60248201527f4552433732313a20746f6b656e20616c7265616479206d696e74656400000000604482015260640161054c565b6001600160a01b038216600090815260036020526040812080546001929061163e908490612265565b909155505060008181526002602052604080822080546001600160a01b0319166001600160a01b03861690811790915590518392907fddf252ad1be2c89b69c2b068fc378daa952ba7f163c4a11628f55a4df523b3ef908290a45050565b6116a582611259565b6117085760405162461bcd60e51b815260206004820152602e60248201527f45524337323155524953746f726167653a2055524920736574206f66206e6f6e60448201526d32bc34b9ba32b73a103a37b5b2b760911b606482015260840161054c565b6000828152600660209081526040909120825161068292840190611d02565b600081116117775760405162461bcd60e51b815260206004820152601c60248201527f5072696365206d757374206265206174206c6561737420312077656900000000604482015260640161054c565b60095434146117985760405162461bcd60e51b815260040161054c906121d0565b6040805160a08101825283815233602080830182815230848601818152606086018881526000608088018181528b8252600b909652979097209551865591516001860180546001600160a01b03199081166001600160a01b0393841617909155925160028701805490941691161790915593516003840155516004909201805460ff19169215159290921790915561183091846113cd565b604080513381523060208201529081018290526000606082015282907fb640004f1d14576d0c209e240cad0410e0d8c0c33a09375861fbadae2588a98d9060800160405180910390a25050565b816001600160a01b0316836001600160a01b031614156118df5760405162461bcd60e51b815260206004820152601960248201527f4552433732313a20617070726f766520746f2063616c6c657200000000000000604482015260640161054c565b6001600160a01b03838116600081815260056020908152604080832094871680845294825291829020805460ff191686151590811790915591519182527f17307eab39ab6107e8899845ad3d59bd9653f200f220920489ca2b5937696c31910160405180910390a3505050565b6119578484846113cd565b61196384848484611aad565b610e135760405162461bcd60e51b815260040161054c9061217e565b606061198a82611259565b6119ee5760405162461bcd60e51b815260206004820152602f60248201527f4552433732314d657461646174613a2055524920717565727920666f72206e6f60448201526e3732bc34b9ba32b73a103a37b5b2b760891b606482015260840161054c565b6000611a0560408051602081019091526000815290565b90506000815111611a255760405180602001604052806000815250610d44565b80611a2f84611bba565b604051602001611a40929190612083565b6040516020818303038152906040529392505050565b805480611aa55760405162461bcd60e51b815260206004820152601b60248201527f436f756e7465723a2064656372656d656e74206f766572666c6f770000000000604482015260640161054c565b600019019055565b60006001600160a01b0384163b15611baf57604051630a85bd0160e11b81526001600160a01b0385169063150b7a0290611af19033908990889088906004016120b2565b602060405180830381600087803b158015611b0b57600080fd5b505af1925050508015611b3b575060408051601f3d908101601f19168201909252611b3891810190611fac565b60015b611b95573d808015611b69576040519150601f19603f3d011682016040523d82523d6000602084013e611b6e565b606091505b508051611b8d5760405162461bcd60e51b815260040161054c9061217e565b805181602001fd5b6001600160e01b031916630a85bd0160e11b1490506110ed565b506001949350505050565b606081611bde5750506040805180820190915260018152600360fc1b602082015290565b8160005b8115611c085780611bf28161230f565b9150611c019050600a8361227d565b9150611be2565b60008167ffffffffffffffff811115611c3157634e487b7160e01b600052604160045260246000fd5b6040519080825280601f01601f191660200182016040528015611c5b576020820181803683370190505b5090505b84156110ed57611c70600183612291565b9150611c7d600a8661232a565b611c88906030612265565b60f81b818381518110611cab57634e487b7160e01b600052603260045260246000fd5b60200101906001600160f81b031916908160001a905350611ccd600a8661227d565b9450611c5f565b6040805160a08101825260008082526020820181905291810182905260608101829052608081019190915290565b828054611d0e906122d4565b90600052602060002090601f016020900481019282611d305760008555611d76565b82601f10611d4957805160ff1916838001178555611d76565b82800160010185558215611d76579182015b82811115611d76578251825591602001919060010190611d5b565b50611d82929150611d86565b5090565b5b80821115611d825760008155600101611d87565b600067ffffffffffffffff80841115611db657611db661236a565b604051601f8501601f19908116603f01168101908282118183101715611dde57611dde61236a565b81604052809350858152868686011115611df757600080fd5b858560208301376000602087830101525050509392505050565b80356001600160a01b0381168114611e2857600080fd5b919050565b600060208284031215611e3e578081fd5b610d4482611e11565b60008060408385031215611e59578081fd5b611e6283611e11565b9150611e7060208401611e11565b90509250929050565b600080600060608486031215611e8d578081fd5b611e9684611e11565b9250611ea460208501611e11565b9150604084013590509250925092565b60008060008060808587031215611ec9578081fd5b611ed285611e11565b9350611ee060208601611e11565b925060408501359150606085013567ffffffffffffffff811115611f02578182fd5b8501601f81018713611f12578182fd5b611f2187823560208401611d9b565b91505092959194509250565b60008060408385031215611f3f578182fd5b611f4883611e11565b915060208301358015158114611f5c578182fd5b809150509250929050565b60008060408385031215611f79578182fd5b611f8283611e11565b946020939093013593505050565b600060208284031215611fa1578081fd5b8135610d4481612380565b600060208284031215611fbd578081fd5b8151610d4481612380565b60008060408385031215611fda578182fd5b823567ffffffffffffffff811115611ff0578283fd5b8301601f81018513612000578283fd5b61200f85823560208401611d9b565b95602094909401359450505050565b60006020828403121561202f578081fd5b5035919050565b60008060408385031215612048578182fd5b50508035926020909101359150565b6000815180845261206f8160208601602086016122a8565b601f01601f19169290920160200192915050565b600083516120958184602088016122a8565b8351908301906120a98183602088016122a8565b01949350505050565b6001600160a01b03858116825284166020820152604081018390526080606082018190526000906120e590830184612057565b9695505050505050565b602080825282518282018190526000919060409081850190868401855b8281101561215e57815180518552868101516001600160a01b03908116888701528682015116868601526060808201519086015260809081015115159085015260a0909301929085019060010161210c565b5091979650505050505050565b602081526000610d446020830184612057565b60208082526032908201527f4552433732313a207472616e7366657220746f206e6f6e20455243373231526560408201527131b2b4bb32b91034b6b83632b6b2b73a32b960711b606082015260800190565b60208082526024908201527f5072696365206d75737420626520657175616c20746f206c697374696e6720706040820152637269636560e01b606082015260800190565b60208082526031908201527f4552433732313a207472616e736665722063616c6c6572206973206e6f74206f6040820152701ddb995c881b9bdc88185c1c1c9bdd9959607a1b606082015260800190565b600082198211156122785761227861233e565b500190565b60008261228c5761228c612354565b500490565b6000828210156122a3576122a361233e565b500390565b60005b838110156122c35781810151838201526020016122ab565b83811115610e135750506000910152565b600181811c908216806122e857607f821691505b6020821081141561230957634e487b7160e01b600052602260045260246000fd5b50919050565b60006000198214156123235761232361233e565b5060010190565b60008261233957612339612354565b500690565b634e487b7160e01b600052601160045260246000fd5b634e487b7160e01b600052601260045260246000fd5b634e487b7160e01b600052604160045260246000fd5b6001600160e01b03198116811461239657600080fd5b5056fea26469706673582212209fcd2201e0dd6a7c461ee16538963d54d3c36ac54ceff9d95ff525dee020beb664736f6c63430008040033",
    "linkReferences": {},
    "deployedLinkReferences": {}
}